{
	"contracts/HotelRoom.sol": {
		"HotelRoom": {
			"abi": [
				{
					"inputs": [],
					"stateMutability": "nonpayable",
					"type": "constructor"
				},
				{
					"anonymous": false,
					"inputs": [
						{
							"indexed": false,
							"internalType": "address",
							"name": "_book",
							"type": "address"
						},
						{
							"indexed": false,
							"internalType": "uint256",
							"name": "_ammountOfValue",
							"type": "uint256"
						}
					],
					"name": "BookingEvent",
					"type": "event"
				},
				{
					"inputs": [],
					"name": "book",
					"outputs": [],
					"stateMutability": "payable",
					"type": "function"
				},
				{
					"inputs": [],
					"name": "getCurrentStatus",
					"outputs": [
						{
							"internalType": "string",
							"name": "",
							"type": "string"
						}
					],
					"stateMutability": "view",
					"type": "function"
				},
				{
					"inputs": [],
					"name": "owner",
					"outputs": [
						{
							"internalType": "address payable",
							"name": "",
							"type": "address"
						}
					],
					"stateMutability": "view",
					"type": "function"
				},
				{
					"inputs": [],
					"name": "requestForChangeStatus",
					"outputs": [],
					"stateMutability": "nonpayable",
					"type": "function"
				}
			],
			"devdoc": {
				"kind": "dev",
				"methods": {},
				"version": 1
			},
			"evm": {
				"assembly": "    /* \"contracts/HotelRoom.sol\":58:1345  contract HotelRoom {... */\n  mstore(0x40, 0x80)\n    /* \"contracts/HotelRoom.sol\":265:364  constructor(){... */\n  callvalue\n  dup1\n  iszero\n  tag_1\n  jumpi\n  0x00\n  dup1\n  revert\ntag_1:\n  pop\n    /* \"contracts/HotelRoom.sol\":304:314  msg.sender */\n  caller\n    /* \"contracts/HotelRoom.sol\":288:293  owner */\n  0x00\n  dup1\n    /* \"contracts/HotelRoom.sol\":288:315  owner = payable(msg.sender) */\n  0x0100\n  exp\n  dup2\n  sload\n  dup2\n  0xffffffffffffffffffffffffffffffffffffffff\n  mul\n  not\n  and\n  swap1\n  dup4\n  0xffffffffffffffffffffffffffffffffffffffff\n  and\n  mul\n  or\n  swap1\n  sstore\n  pop\n    /* \"contracts/HotelRoom.sol\":341:357  RoomStatus.EMPTY */\n  0x01\n    /* \"contracts/HotelRoom.sol\":325:338  currentStatus */\n  0x00\n  0x14\n    /* \"contracts/HotelRoom.sol\":325:357  currentStatus = RoomStatus.EMPTY */\n  0x0100\n  exp\n  dup2\n  sload\n  dup2\n  0xff\n  mul\n  not\n  and\n  swap1\n  dup4\n  0x01\n  dup2\n  gt\n  iszero\n  tag_4\n  jumpi\n  tag_5\n  tag_6\n  jump\t// in\ntag_5:\ntag_4:\n  mul\n  or\n  swap1\n  sstore\n  pop\n    /* \"contracts/HotelRoom.sol\":58:1345  contract HotelRoom {... */\n  jump(tag_7)\n    /* \"#utility.yul\":7:187   */\ntag_6:\n    /* \"#utility.yul\":55:132   */\n  0x4e487b7100000000000000000000000000000000000000000000000000000000\n    /* \"#utility.yul\":52:53   */\n  0x00\n    /* \"#utility.yul\":45:133   */\n  mstore\n    /* \"#utility.yul\":152:156   */\n  0x21\n    /* \"#utility.yul\":149:150   */\n  0x04\n    /* \"#utility.yul\":142:157   */\n  mstore\n    /* \"#utility.yul\":176:180   */\n  0x24\n    /* \"#utility.yul\":173:174   */\n  0x00\n    /* \"#utility.yul\":166:181   */\n  revert\n    /* \"contracts/HotelRoom.sol\":58:1345  contract HotelRoom {... */\ntag_7:\n  dataSize(sub_0)\n  dup1\n  dataOffset(sub_0)\n  0x00\n  codecopy\n  0x00\n  return\nstop\n\nsub_0: assembly {\n        /* \"contracts/HotelRoom.sol\":58:1345  contract HotelRoom {... */\n      mstore(0x40, 0x80)\n      jumpi(tag_1, lt(calldatasize, 0x04))\n      shr(0xe0, calldataload(0x00))\n      dup1\n      0x030da3ee\n      eq\n      tag_2\n      jumpi\n      dup1\n      0x05a8da72\n      eq\n      tag_3\n      jumpi\n      dup1\n      0x8da5cb5b\n      eq\n      tag_4\n      jumpi\n      dup1\n      0xa3dd2619\n      eq\n      tag_5\n      jumpi\n    tag_1:\n      0x00\n      dup1\n      revert\n        /* \"contracts/HotelRoom.sol\":902:1115  function requestForChangeStatus () public {... */\n    tag_2:\n      callvalue\n      dup1\n      iszero\n      tag_6\n      jumpi\n      0x00\n      dup1\n      revert\n    tag_6:\n      pop\n      tag_7\n      tag_8\n      jump\t// in\n    tag_7:\n      stop\n        /* \"contracts/HotelRoom.sol\":1121:1343  function book() public payable onlyWhileEmpty costs(2 ether) {... */\n    tag_3:\n      tag_9\n      tag_10\n      jump\t// in\n    tag_9:\n      stop\n        /* \"contracts/HotelRoom.sol\":139:167  address payable public owner */\n    tag_4:\n      callvalue\n      dup1\n      iszero\n      tag_11\n      jumpi\n      0x00\n      dup1\n      revert\n    tag_11:\n      pop\n      tag_12\n      tag_13\n      jump\t// in\n    tag_12:\n      mload(0x40)\n      tag_14\n      swap2\n      swap1\n      tag_15\n      jump\t// in\n    tag_14:\n      mload(0x40)\n      dup1\n      swap2\n      sub\n      swap1\n      return\n        /* \"contracts/HotelRoom.sol\":697:896  function getCurrentStatus () public view returns (string memory) {... */\n    tag_5:\n      callvalue\n      dup1\n      iszero\n      tag_16\n      jumpi\n      0x00\n      dup1\n      revert\n    tag_16:\n      pop\n      tag_17\n      tag_18\n      jump\t// in\n    tag_17:\n      mload(0x40)\n      tag_19\n      swap2\n      swap1\n      tag_20\n      jump\t// in\n    tag_19:\n      mload(0x40)\n      dup1\n      swap2\n      sub\n      swap1\n      return\n        /* \"contracts/HotelRoom.sol\":902:1115  function requestForChangeStatus () public {... */\n    tag_8:\n        /* \"contracts/HotelRoom.sol\":974:989  RoomStatus.FULL */\n      0x00\n        /* \"contracts/HotelRoom.sol\":957:989  currentStatus == RoomStatus.FULL */\n      0x01\n      dup2\n      gt\n      iszero\n      tag_22\n      jumpi\n      tag_23\n      tag_24\n      jump\t// in\n    tag_23:\n    tag_22:\n        /* \"contracts/HotelRoom.sol\":957:970  currentStatus */\n      0x00\n      0x14\n      swap1\n      sload\n      swap1\n      0x0100\n      exp\n      swap1\n      div\n      0xff\n      and\n        /* \"contracts/HotelRoom.sol\":957:989  currentStatus == RoomStatus.FULL */\n      0x01\n      dup2\n      gt\n      iszero\n      tag_25\n      jumpi\n      tag_26\n      tag_24\n      jump\t// in\n    tag_26:\n    tag_25:\n      sub\n        /* \"contracts/HotelRoom.sol\":954:1109  if(currentStatus == RoomStatus.FULL){... */\n      tag_27\n      jumpi\n        /* \"contracts/HotelRoom.sol\":1020:1036  RoomStatus.EMPTY */\n      0x01\n        /* \"contracts/HotelRoom.sol\":1004:1017  currentStatus */\n      0x00\n      0x14\n        /* \"contracts/HotelRoom.sol\":1004:1036  currentStatus = RoomStatus.EMPTY */\n      0x0100\n      exp\n      dup2\n      sload\n      dup2\n      0xff\n      mul\n      not\n      and\n      swap1\n      dup4\n      0x01\n      dup2\n      gt\n      iszero\n      tag_28\n      jumpi\n      tag_29\n      tag_24\n      jump\t// in\n    tag_29:\n    tag_28:\n      mul\n      or\n      swap1\n      sstore\n      pop\n        /* \"contracts/HotelRoom.sol\":954:1109  if(currentStatus == RoomStatus.FULL){... */\n      jump(tag_30)\n    tag_27:\n        /* \"contracts/HotelRoom.sol\":1082:1098  RoomStatus.EMPTY */\n      0x01\n        /* \"contracts/HotelRoom.sol\":1066:1079  currentStatus */\n      0x00\n      0x14\n        /* \"contracts/HotelRoom.sol\":1066:1098  currentStatus = RoomStatus.EMPTY */\n      0x0100\n      exp\n      dup2\n      sload\n      dup2\n      0xff\n      mul\n      not\n      and\n      swap1\n      dup4\n      0x01\n      dup2\n      gt\n      iszero\n      tag_31\n      jumpi\n      tag_32\n      tag_24\n      jump\t// in\n    tag_32:\n    tag_31:\n      mul\n      or\n      swap1\n      sstore\n      pop\n        /* \"contracts/HotelRoom.sol\":954:1109  if(currentStatus == RoomStatus.FULL){... */\n    tag_30:\n        /* \"contracts/HotelRoom.sol\":902:1115  function requestForChangeStatus () public {... */\n      jump\t// out\n        /* \"contracts/HotelRoom.sol\":1121:1343  function book() public payable onlyWhileEmpty costs(2 ether) {... */\n    tag_10:\n        /* \"contracts/HotelRoom.sol\":429:445  RoomStatus.EMPTY */\n      0x01\n        /* \"contracts/HotelRoom.sol\":412:445  currentStatus == RoomStatus.EMPTY */\n      dup1\n      dup2\n      gt\n      iszero\n      tag_34\n      jumpi\n      tag_35\n      tag_24\n      jump\t// in\n    tag_35:\n    tag_34:\n        /* \"contracts/HotelRoom.sol\":412:425  currentStatus */\n      0x00\n      0x14\n      swap1\n      sload\n      swap1\n      0x0100\n      exp\n      swap1\n      div\n      0xff\n      and\n        /* \"contracts/HotelRoom.sol\":412:445  currentStatus == RoomStatus.EMPTY */\n      0x01\n      dup2\n      gt\n      iszero\n      tag_36\n      jumpi\n      tag_37\n      tag_24\n      jump\t// in\n    tag_37:\n    tag_36:\n      eq\n        /* \"contracts/HotelRoom.sol\":404:482  require(currentStatus == RoomStatus.EMPTY, \"Currently empty you can book now\") */\n      tag_38\n      jumpi\n      mload(0x40)\n      0x08c379a000000000000000000000000000000000000000000000000000000000\n      dup2\n      mstore\n      0x04\n      add\n      tag_39\n      swap1\n      tag_40\n      jump\t// in\n    tag_39:\n      mload(0x40)\n      dup1\n      swap2\n      sub\n      swap1\n      revert\n    tag_38:\n        /* \"contracts/HotelRoom.sol\":1173:1180  2 ether */\n      0x1bc16d674ec80000\n        /* \"contracts/HotelRoom.sol\":567:575  _ammount */\n      dup1\n        /* \"contracts/HotelRoom.sol\":554:563  msg.value */\n      callvalue\n        /* \"contracts/HotelRoom.sol\":554:575  msg.value >= _ammount */\n      lt\n      iszero\n        /* \"contracts/HotelRoom.sol\":546:605  require(msg.value >= _ammount, \"Not enough ether provided\") */\n      tag_42\n      jumpi\n      mload(0x40)\n      0x08c379a000000000000000000000000000000000000000000000000000000000\n      dup2\n      mstore\n      0x04\n      add\n      tag_43\n      swap1\n      tag_44\n      jump\t// in\n    tag_43:\n      mload(0x40)\n      dup1\n      swap2\n      sub\n      swap1\n      revert\n    tag_42:\n        /* \"contracts/HotelRoom.sol\":636:638  90 */\n      0x5a\n        /* \"contracts/HotelRoom.sol\":623:632  msg.value */\n      callvalue\n        /* \"contracts/HotelRoom.sol\":623:638  msg.value <= 90 */\n      gt\n      iszero\n        /* \"contracts/HotelRoom.sol\":615:673  require(msg.value <= 90, \"Ammount should be less than 90\") */\n      tag_45\n      jumpi\n      mload(0x40)\n      0x08c379a000000000000000000000000000000000000000000000000000000000\n      dup2\n      mstore\n      0x04\n      add\n      tag_46\n      swap1\n      tag_47\n      jump\t// in\n    tag_46:\n      mload(0x40)\n      dup1\n      swap2\n      sub\n      swap1\n      revert\n    tag_45:\n        /* \"contracts/HotelRoom.sol\":1208:1223  RoomStatus.FULL */\n      0x00\n        /* \"contracts/HotelRoom.sol\":1192:1205  currentStatus */\n      dup1\n      0x14\n        /* \"contracts/HotelRoom.sol\":1192:1223  currentStatus = RoomStatus.FULL */\n      0x0100\n      exp\n      dup2\n      sload\n      dup2\n      0xff\n      mul\n      not\n      and\n      swap1\n      dup4\n      0x01\n      dup2\n      gt\n      iszero\n      tag_49\n      jumpi\n      tag_50\n      tag_24\n      jump\t// in\n    tag_50:\n    tag_49:\n      mul\n      or\n      swap1\n      sstore\n      pop\n        /* \"contracts/HotelRoom.sol\":1233:1238  owner */\n      0x00\n      dup1\n      sload\n      swap1\n      0x0100\n      exp\n      swap1\n      div\n      0xffffffffffffffffffffffffffffffffffffffff\n      and\n        /* \"contracts/HotelRoom.sol\":1233:1247  owner.transfer */\n      0xffffffffffffffffffffffffffffffffffffffff\n      and\n        /* \"contracts/HotelRoom.sol\":1233:1258  owner.transfer(msg.value) */\n      0x08fc\n        /* \"contracts/HotelRoom.sol\":1248:1257  msg.value */\n      callvalue\n        /* \"contracts/HotelRoom.sol\":1233:1258  owner.transfer(msg.value) */\n      swap1\n      dup2\n      iszero\n      mul\n      swap1\n      mload(0x40)\n      0x00\n      mload(0x40)\n      dup1\n      dup4\n      sub\n      dup2\n      dup6\n      dup9\n      dup9\n      call\n      swap4\n      pop\n      pop\n      pop\n      pop\n      iszero\n      dup1\n      iszero\n      tag_52\n      jumpi\n      returndatasize\n      0x00\n      dup1\n      returndatacopy\n      revert(0x00, returndatasize)\n    tag_52:\n      pop\n        /* \"contracts/HotelRoom.sol\":1301:1336  BookingEvent(msg.sender, msg.value) */\n      0x3846965588cd0ff927b37b72ddb4d43e64732f3cf60c27e7963a78ac291da2b9\n        /* \"contracts/HotelRoom.sol\":1314:1324  msg.sender */\n      caller\n        /* \"contracts/HotelRoom.sol\":1326:1335  msg.value */\n      callvalue\n        /* \"contracts/HotelRoom.sol\":1301:1336  BookingEvent(msg.sender, msg.value) */\n      mload(0x40)\n      tag_53\n      swap3\n      swap2\n      swap1\n      tag_54\n      jump\t// in\n    tag_53:\n      mload(0x40)\n      dup1\n      swap2\n      sub\n      swap1\n      log1\n        /* \"contracts/HotelRoom.sol\":492:493  _ */\n      pop\n        /* \"contracts/HotelRoom.sol\":1121:1343  function book() public payable onlyWhileEmpty costs(2 ether) {... */\n      jump\t// out\n        /* \"contracts/HotelRoom.sol\":139:167  address payable public owner */\n    tag_13:\n      0x00\n      dup1\n      sload\n      swap1\n      0x0100\n      exp\n      swap1\n      div\n      0xffffffffffffffffffffffffffffffffffffffff\n      and\n      dup2\n      jump\t// out\n        /* \"contracts/HotelRoom.sol\":697:896  function getCurrentStatus () public view returns (string memory) {... */\n    tag_18:\n        /* \"contracts/HotelRoom.sol\":747:760  string memory */\n      0x60\n        /* \"contracts/HotelRoom.sol\":792:807  RoomStatus.FULL */\n      0x00\n        /* \"contracts/HotelRoom.sol\":775:807  currentStatus == RoomStatus.FULL */\n      0x01\n      dup2\n      gt\n      iszero\n      tag_56\n      jumpi\n      tag_57\n      tag_24\n      jump\t// in\n    tag_57:\n    tag_56:\n        /* \"contracts/HotelRoom.sol\":775:788  currentStatus */\n      0x00\n      0x14\n      swap1\n      sload\n      swap1\n      0x0100\n      exp\n      swap1\n      div\n      0xff\n      and\n        /* \"contracts/HotelRoom.sol\":775:807  currentStatus == RoomStatus.FULL */\n      0x01\n      dup2\n      gt\n      iszero\n      tag_58\n      jumpi\n      tag_59\n      tag_24\n      jump\t// in\n    tag_59:\n    tag_58:\n      sub\n        /* \"contracts/HotelRoom.sol\":772:890  if(currentStatus == RoomStatus.FULL){... */\n      tag_60\n      jumpi\n        /* \"contracts/HotelRoom.sol\":822:835  return \"Full\" */\n      mload(0x40)\n      dup1\n      0x40\n      add\n      0x40\n      mstore\n      dup1\n      0x04\n      dup2\n      mstore\n      0x20\n      add\n      0x46756c6c00000000000000000000000000000000000000000000000000000000\n      dup2\n      mstore\n      pop\n      swap1\n      pop\n      jump(tag_55)\n        /* \"contracts/HotelRoom.sol\":772:890  if(currentStatus == RoomStatus.FULL){... */\n    tag_60:\n        /* \"contracts/HotelRoom.sol\":865:879  return \"Empty\" */\n      mload(0x40)\n      dup1\n      0x40\n      add\n      0x40\n      mstore\n      dup1\n      0x05\n      dup2\n      mstore\n      0x20\n      add\n      0x456d707479000000000000000000000000000000000000000000000000000000\n      dup2\n      mstore\n      pop\n      swap1\n      pop\n        /* \"contracts/HotelRoom.sol\":697:896  function getCurrentStatus () public view returns (string memory) {... */\n    tag_55:\n      swap1\n      jump\t// out\n        /* \"#utility.yul\":7:133   */\n    tag_62:\n        /* \"#utility.yul\":44:51   */\n      0x00\n        /* \"#utility.yul\":84:126   */\n      0xffffffffffffffffffffffffffffffffffffffff\n        /* \"#utility.yul\":77:82   */\n      dup3\n        /* \"#utility.yul\":73:127   */\n      and\n        /* \"#utility.yul\":62:127   */\n      swap1\n      pop\n        /* \"#utility.yul\":7:133   */\n      swap2\n      swap1\n      pop\n      jump\t// out\n        /* \"#utility.yul\":139:243   */\n    tag_63:\n        /* \"#utility.yul\":184:191   */\n      0x00\n        /* \"#utility.yul\":213:237   */\n      tag_83\n        /* \"#utility.yul\":231:236   */\n      dup3\n        /* \"#utility.yul\":213:237   */\n      tag_62\n      jump\t// in\n    tag_83:\n        /* \"#utility.yul\":202:237   */\n      swap1\n      pop\n        /* \"#utility.yul\":139:243   */\n      swap2\n      swap1\n      pop\n      jump\t// out\n        /* \"#utility.yul\":249:391   */\n    tag_64:\n        /* \"#utility.yul\":352:384   */\n      tag_85\n        /* \"#utility.yul\":378:383   */\n      dup2\n        /* \"#utility.yul\":352:384   */\n      tag_63\n      jump\t// in\n    tag_85:\n        /* \"#utility.yul\":347:350   */\n      dup3\n        /* \"#utility.yul\":340:385   */\n      mstore\n        /* \"#utility.yul\":249:391   */\n      pop\n      pop\n      jump\t// out\n        /* \"#utility.yul\":397:651   */\n    tag_15:\n        /* \"#utility.yul\":506:510   */\n      0x00\n        /* \"#utility.yul\":544:546   */\n      0x20\n        /* \"#utility.yul\":533:542   */\n      dup3\n        /* \"#utility.yul\":529:547   */\n      add\n        /* \"#utility.yul\":521:547   */\n      swap1\n      pop\n        /* \"#utility.yul\":557:644   */\n      tag_87\n        /* \"#utility.yul\":641:642   */\n      0x00\n        /* \"#utility.yul\":630:639   */\n      dup4\n        /* \"#utility.yul\":626:643   */\n      add\n        /* \"#utility.yul\":617:623   */\n      dup5\n        /* \"#utility.yul\":557:644   */\n      tag_64\n      jump\t// in\n    tag_87:\n        /* \"#utility.yul\":397:651   */\n      swap3\n      swap2\n      pop\n      pop\n      jump\t// out\n        /* \"#utility.yul\":657:756   */\n    tag_65:\n        /* \"#utility.yul\":709:715   */\n      0x00\n        /* \"#utility.yul\":743:748   */\n      dup2\n        /* \"#utility.yul\":737:749   */\n      mload\n        /* \"#utility.yul\":727:749   */\n      swap1\n      pop\n        /* \"#utility.yul\":657:756   */\n      swap2\n      swap1\n      pop\n      jump\t// out\n        /* \"#utility.yul\":762:931   */\n    tag_66:\n        /* \"#utility.yul\":846:857   */\n      0x00\n        /* \"#utility.yul\":880:886   */\n      dup3\n        /* \"#utility.yul\":875:878   */\n      dup3\n        /* \"#utility.yul\":868:887   */\n      mstore\n        /* \"#utility.yul\":920:924   */\n      0x20\n        /* \"#utility.yul\":915:918   */\n      dup3\n        /* \"#utility.yul\":911:925   */\n      add\n        /* \"#utility.yul\":896:925   */\n      swap1\n      pop\n        /* \"#utility.yul\":762:931   */\n      swap3\n      swap2\n      pop\n      pop\n      jump\t// out\n        /* \"#utility.yul\":937:1076   */\n    tag_67:\n        /* \"#utility.yul\":1026:1032   */\n      dup3\n        /* \"#utility.yul\":1021:1024   */\n      dup2\n        /* \"#utility.yul\":1016:1019   */\n      dup4\n        /* \"#utility.yul\":1010:1033   */\n      mcopy\n        /* \"#utility.yul\":1067:1068   */\n      0x00\n        /* \"#utility.yul\":1058:1064   */\n      dup4\n        /* \"#utility.yul\":1053:1056   */\n      dup4\n        /* \"#utility.yul\":1049:1065   */\n      add\n        /* \"#utility.yul\":1042:1069   */\n      mstore\n        /* \"#utility.yul\":937:1076   */\n      pop\n      pop\n      pop\n      jump\t// out\n        /* \"#utility.yul\":1082:1184   */\n    tag_68:\n        /* \"#utility.yul\":1123:1129   */\n      0x00\n        /* \"#utility.yul\":1174:1176   */\n      0x1f\n        /* \"#utility.yul\":1170:1177   */\n      not\n        /* \"#utility.yul\":1165:1167   */\n      0x1f\n        /* \"#utility.yul\":1158:1163   */\n      dup4\n        /* \"#utility.yul\":1154:1168   */\n      add\n        /* \"#utility.yul\":1150:1178   */\n      and\n        /* \"#utility.yul\":1140:1178   */\n      swap1\n      pop\n        /* \"#utility.yul\":1082:1184   */\n      swap2\n      swap1\n      pop\n      jump\t// out\n        /* \"#utility.yul\":1190:1567   */\n    tag_69:\n        /* \"#utility.yul\":1278:1281   */\n      0x00\n        /* \"#utility.yul\":1306:1345   */\n      tag_93\n        /* \"#utility.yul\":1339:1344   */\n      dup3\n        /* \"#utility.yul\":1306:1345   */\n      tag_65\n      jump\t// in\n    tag_93:\n        /* \"#utility.yul\":1361:1432   */\n      tag_94\n        /* \"#utility.yul\":1425:1431   */\n      dup2\n        /* \"#utility.yul\":1420:1423   */\n      dup6\n        /* \"#utility.yul\":1361:1432   */\n      tag_66\n      jump\t// in\n    tag_94:\n        /* \"#utility.yul\":1354:1432   */\n      swap4\n      pop\n        /* \"#utility.yul\":1441:1506   */\n      tag_95\n        /* \"#utility.yul\":1499:1505   */\n      dup2\n        /* \"#utility.yul\":1494:1497   */\n      dup6\n        /* \"#utility.yul\":1487:1491   */\n      0x20\n        /* \"#utility.yul\":1480:1485   */\n      dup7\n        /* \"#utility.yul\":1476:1492   */\n      add\n        /* \"#utility.yul\":1441:1506   */\n      tag_67\n      jump\t// in\n    tag_95:\n        /* \"#utility.yul\":1531:1560   */\n      tag_96\n        /* \"#utility.yul\":1553:1559   */\n      dup2\n        /* \"#utility.yul\":1531:1560   */\n      tag_68\n      jump\t// in\n    tag_96:\n        /* \"#utility.yul\":1526:1529   */\n      dup5\n        /* \"#utility.yul\":1522:1561   */\n      add\n        /* \"#utility.yul\":1515:1561   */\n      swap2\n      pop\n        /* \"#utility.yul\":1282:1567   */\n      pop\n        /* \"#utility.yul\":1190:1567   */\n      swap3\n      swap2\n      pop\n      pop\n      jump\t// out\n        /* \"#utility.yul\":1573:1886   */\n    tag_20:\n        /* \"#utility.yul\":1686:1690   */\n      0x00\n        /* \"#utility.yul\":1724:1726   */\n      0x20\n        /* \"#utility.yul\":1713:1722   */\n      dup3\n        /* \"#utility.yul\":1709:1727   */\n      add\n        /* \"#utility.yul\":1701:1727   */\n      swap1\n      pop\n        /* \"#utility.yul\":1773:1782   */\n      dup2\n        /* \"#utility.yul\":1767:1771   */\n      dup2\n        /* \"#utility.yul\":1763:1783   */\n      sub\n        /* \"#utility.yul\":1759:1760   */\n      0x00\n        /* \"#utility.yul\":1748:1757   */\n      dup4\n        /* \"#utility.yul\":1744:1761   */\n      add\n        /* \"#utility.yul\":1737:1784   */\n      mstore\n        /* \"#utility.yul\":1801:1879   */\n      tag_98\n        /* \"#utility.yul\":1874:1878   */\n      dup2\n        /* \"#utility.yul\":1865:1871   */\n      dup5\n        /* \"#utility.yul\":1801:1879   */\n      tag_69\n      jump\t// in\n    tag_98:\n        /* \"#utility.yul\":1793:1879   */\n      swap1\n      pop\n        /* \"#utility.yul\":1573:1886   */\n      swap3\n      swap2\n      pop\n      pop\n      jump\t// out\n        /* \"#utility.yul\":1892:2072   */\n    tag_24:\n        /* \"#utility.yul\":1940:2017   */\n      0x4e487b7100000000000000000000000000000000000000000000000000000000\n        /* \"#utility.yul\":1937:1938   */\n      0x00\n        /* \"#utility.yul\":1930:2018   */\n      mstore\n        /* \"#utility.yul\":2037:2041   */\n      0x21\n        /* \"#utility.yul\":2034:2035   */\n      0x04\n        /* \"#utility.yul\":2027:2042   */\n      mstore\n        /* \"#utility.yul\":2061:2065   */\n      0x24\n        /* \"#utility.yul\":2058:2059   */\n      0x00\n        /* \"#utility.yul\":2051:2066   */\n      revert\n        /* \"#utility.yul\":2078:2260   */\n    tag_70:\n        /* \"#utility.yul\":2218:2252   */\n      0x43757272656e746c7920656d70747920796f752063616e20626f6f6b206e6f77\n        /* \"#utility.yul\":2214:2215   */\n      0x00\n        /* \"#utility.yul\":2206:2212   */\n      dup3\n        /* \"#utility.yul\":2202:2216   */\n      add\n        /* \"#utility.yul\":2195:2253   */\n      mstore\n        /* \"#utility.yul\":2078:2260   */\n      pop\n      jump\t// out\n        /* \"#utility.yul\":2266:2632   */\n    tag_71:\n        /* \"#utility.yul\":2408:2411   */\n      0x00\n        /* \"#utility.yul\":2429:2496   */\n      tag_102\n        /* \"#utility.yul\":2493:2495   */\n      0x20\n        /* \"#utility.yul\":2488:2491   */\n      dup4\n        /* \"#utility.yul\":2429:2496   */\n      tag_66\n      jump\t// in\n    tag_102:\n        /* \"#utility.yul\":2422:2496   */\n      swap2\n      pop\n        /* \"#utility.yul\":2505:2598   */\n      tag_103\n        /* \"#utility.yul\":2594:2597   */\n      dup3\n        /* \"#utility.yul\":2505:2598   */\n      tag_70\n      jump\t// in\n    tag_103:\n        /* \"#utility.yul\":2623:2625   */\n      0x20\n        /* \"#utility.yul\":2618:2621   */\n      dup3\n        /* \"#utility.yul\":2614:2626   */\n      add\n        /* \"#utility.yul\":2607:2626   */\n      swap1\n      pop\n        /* \"#utility.yul\":2266:2632   */\n      swap2\n      swap1\n      pop\n      jump\t// out\n        /* \"#utility.yul\":2638:3057   */\n    tag_40:\n        /* \"#utility.yul\":2804:2808   */\n      0x00\n        /* \"#utility.yul\":2842:2844   */\n      0x20\n        /* \"#utility.yul\":2831:2840   */\n      dup3\n        /* \"#utility.yul\":2827:2845   */\n      add\n        /* \"#utility.yul\":2819:2845   */\n      swap1\n      pop\n        /* \"#utility.yul\":2891:2900   */\n      dup2\n        /* \"#utility.yul\":2885:2889   */\n      dup2\n        /* \"#utility.yul\":2881:2901   */\n      sub\n        /* \"#utility.yul\":2877:2878   */\n      0x00\n        /* \"#utility.yul\":2866:2875   */\n      dup4\n        /* \"#utility.yul\":2862:2879   */\n      add\n        /* \"#utility.yul\":2855:2902   */\n      mstore\n        /* \"#utility.yul\":2919:3050   */\n      tag_105\n        /* \"#utility.yul\":3045:3049   */\n      dup2\n        /* \"#utility.yul\":2919:3050   */\n      tag_71\n      jump\t// in\n    tag_105:\n        /* \"#utility.yul\":2911:3050   */\n      swap1\n      pop\n        /* \"#utility.yul\":2638:3057   */\n      swap2\n      swap1\n      pop\n      jump\t// out\n        /* \"#utility.yul\":3063:3238   */\n    tag_72:\n        /* \"#utility.yul\":3203:3230   */\n      0x4e6f7420656e6f7567682065746865722070726f766964656400000000000000\n        /* \"#utility.yul\":3199:3200   */\n      0x00\n        /* \"#utility.yul\":3191:3197   */\n      dup3\n        /* \"#utility.yul\":3187:3201   */\n      add\n        /* \"#utility.yul\":3180:3231   */\n      mstore\n        /* \"#utility.yul\":3063:3238   */\n      pop\n      jump\t// out\n        /* \"#utility.yul\":3244:3610   */\n    tag_73:\n        /* \"#utility.yul\":3386:3389   */\n      0x00\n        /* \"#utility.yul\":3407:3474   */\n      tag_108\n        /* \"#utility.yul\":3471:3473   */\n      0x19\n        /* \"#utility.yul\":3466:3469   */\n      dup4\n        /* \"#utility.yul\":3407:3474   */\n      tag_66\n      jump\t// in\n    tag_108:\n        /* \"#utility.yul\":3400:3474   */\n      swap2\n      pop\n        /* \"#utility.yul\":3483:3576   */\n      tag_109\n        /* \"#utility.yul\":3572:3575   */\n      dup3\n        /* \"#utility.yul\":3483:3576   */\n      tag_72\n      jump\t// in\n    tag_109:\n        /* \"#utility.yul\":3601:3603   */\n      0x20\n        /* \"#utility.yul\":3596:3599   */\n      dup3\n        /* \"#utility.yul\":3592:3604   */\n      add\n        /* \"#utility.yul\":3585:3604   */\n      swap1\n      pop\n        /* \"#utility.yul\":3244:3610   */\n      swap2\n      swap1\n      pop\n      jump\t// out\n        /* \"#utility.yul\":3616:4035   */\n    tag_44:\n        /* \"#utility.yul\":3782:3786   */\n      0x00\n        /* \"#utility.yul\":3820:3822   */\n      0x20\n        /* \"#utility.yul\":3809:3818   */\n      dup3\n        /* \"#utility.yul\":3805:3823   */\n      add\n        /* \"#utility.yul\":3797:3823   */\n      swap1\n      pop\n        /* \"#utility.yul\":3869:3878   */\n      dup2\n        /* \"#utility.yul\":3863:3867   */\n      dup2\n        /* \"#utility.yul\":3859:3879   */\n      sub\n        /* \"#utility.yul\":3855:3856   */\n      0x00\n        /* \"#utility.yul\":3844:3853   */\n      dup4\n        /* \"#utility.yul\":3840:3857   */\n      add\n        /* \"#utility.yul\":3833:3880   */\n      mstore\n        /* \"#utility.yul\":3897:4028   */\n      tag_111\n        /* \"#utility.yul\":4023:4027   */\n      dup2\n        /* \"#utility.yul\":3897:4028   */\n      tag_73\n      jump\t// in\n    tag_111:\n        /* \"#utility.yul\":3889:4028   */\n      swap1\n      pop\n        /* \"#utility.yul\":3616:4035   */\n      swap2\n      swap1\n      pop\n      jump\t// out\n        /* \"#utility.yul\":4041:4221   */\n    tag_74:\n        /* \"#utility.yul\":4181:4213   */\n      0x416d6d6f756e742073686f756c64206265206c657373207468616e2039300000\n        /* \"#utility.yul\":4177:4178   */\n      0x00\n        /* \"#utility.yul\":4169:4175   */\n      dup3\n        /* \"#utility.yul\":4165:4179   */\n      add\n        /* \"#utility.yul\":4158:4214   */\n      mstore\n        /* \"#utility.yul\":4041:4221   */\n      pop\n      jump\t// out\n        /* \"#utility.yul\":4227:4593   */\n    tag_75:\n        /* \"#utility.yul\":4369:4372   */\n      0x00\n        /* \"#utility.yul\":4390:4457   */\n      tag_114\n        /* \"#utility.yul\":4454:4456   */\n      0x1e\n        /* \"#utility.yul\":4449:4452   */\n      dup4\n        /* \"#utility.yul\":4390:4457   */\n      tag_66\n      jump\t// in\n    tag_114:\n        /* \"#utility.yul\":4383:4457   */\n      swap2\n      pop\n        /* \"#utility.yul\":4466:4559   */\n      tag_115\n        /* \"#utility.yul\":4555:4558   */\n      dup3\n        /* \"#utility.yul\":4466:4559   */\n      tag_74\n      jump\t// in\n    tag_115:\n        /* \"#utility.yul\":4584:4586   */\n      0x20\n        /* \"#utility.yul\":4579:4582   */\n      dup3\n        /* \"#utility.yul\":4575:4587   */\n      add\n        /* \"#utility.yul\":4568:4587   */\n      swap1\n      pop\n        /* \"#utility.yul\":4227:4593   */\n      swap2\n      swap1\n      pop\n      jump\t// out\n        /* \"#utility.yul\":4599:5018   */\n    tag_47:\n        /* \"#utility.yul\":4765:4769   */\n      0x00\n        /* \"#utility.yul\":4803:4805   */\n      0x20\n        /* \"#utility.yul\":4792:4801   */\n      dup3\n        /* \"#utility.yul\":4788:4806   */\n      add\n        /* \"#utility.yul\":4780:4806   */\n      swap1\n      pop\n        /* \"#utility.yul\":4852:4861   */\n      dup2\n        /* \"#utility.yul\":4846:4850   */\n      dup2\n        /* \"#utility.yul\":4842:4862   */\n      sub\n        /* \"#utility.yul\":4838:4839   */\n      0x00\n        /* \"#utility.yul\":4827:4836   */\n      dup4\n        /* \"#utility.yul\":4823:4840   */\n      add\n        /* \"#utility.yul\":4816:4863   */\n      mstore\n        /* \"#utility.yul\":4880:5011   */\n      tag_117\n        /* \"#utility.yul\":5006:5010   */\n      dup2\n        /* \"#utility.yul\":4880:5011   */\n      tag_75\n      jump\t// in\n    tag_117:\n        /* \"#utility.yul\":4872:5011   */\n      swap1\n      pop\n        /* \"#utility.yul\":4599:5018   */\n      swap2\n      swap1\n      pop\n      jump\t// out\n        /* \"#utility.yul\":5024:5120   */\n    tag_76:\n        /* \"#utility.yul\":5061:5068   */\n      0x00\n        /* \"#utility.yul\":5090:5114   */\n      tag_119\n        /* \"#utility.yul\":5108:5113   */\n      dup3\n        /* \"#utility.yul\":5090:5114   */\n      tag_62\n      jump\t// in\n    tag_119:\n        /* \"#utility.yul\":5079:5114   */\n      swap1\n      pop\n        /* \"#utility.yul\":5024:5120   */\n      swap2\n      swap1\n      pop\n      jump\t// out\n        /* \"#utility.yul\":5126:5244   */\n    tag_77:\n        /* \"#utility.yul\":5213:5237   */\n      tag_121\n        /* \"#utility.yul\":5231:5236   */\n      dup2\n        /* \"#utility.yul\":5213:5237   */\n      tag_76\n      jump\t// in\n    tag_121:\n        /* \"#utility.yul\":5208:5211   */\n      dup3\n        /* \"#utility.yul\":5201:5238   */\n      mstore\n        /* \"#utility.yul\":5126:5244   */\n      pop\n      pop\n      jump\t// out\n        /* \"#utility.yul\":5250:5327   */\n    tag_78:\n        /* \"#utility.yul\":5287:5294   */\n      0x00\n        /* \"#utility.yul\":5316:5321   */\n      dup2\n        /* \"#utility.yul\":5305:5321   */\n      swap1\n      pop\n        /* \"#utility.yul\":5250:5327   */\n      swap2\n      swap1\n      pop\n      jump\t// out\n        /* \"#utility.yul\":5333:5451   */\n    tag_79:\n        /* \"#utility.yul\":5420:5444   */\n      tag_124\n        /* \"#utility.yul\":5438:5443   */\n      dup2\n        /* \"#utility.yul\":5420:5444   */\n      tag_78\n      jump\t// in\n    tag_124:\n        /* \"#utility.yul\":5415:5418   */\n      dup3\n        /* \"#utility.yul\":5408:5445   */\n      mstore\n        /* \"#utility.yul\":5333:5451   */\n      pop\n      pop\n      jump\t// out\n        /* \"#utility.yul\":5457:5789   */\n    tag_54:\n        /* \"#utility.yul\":5578:5582   */\n      0x00\n        /* \"#utility.yul\":5616:5618   */\n      0x40\n        /* \"#utility.yul\":5605:5614   */\n      dup3\n        /* \"#utility.yul\":5601:5619   */\n      add\n        /* \"#utility.yul\":5593:5619   */\n      swap1\n      pop\n        /* \"#utility.yul\":5629:5700   */\n      tag_126\n        /* \"#utility.yul\":5697:5698   */\n      0x00\n        /* \"#utility.yul\":5686:5695   */\n      dup4\n        /* \"#utility.yul\":5682:5699   */\n      add\n        /* \"#utility.yul\":5673:5679   */\n      dup6\n        /* \"#utility.yul\":5629:5700   */\n      tag_77\n      jump\t// in\n    tag_126:\n        /* \"#utility.yul\":5710:5782   */\n      tag_127\n        /* \"#utility.yul\":5778:5780   */\n      0x20\n        /* \"#utility.yul\":5767:5776   */\n      dup4\n        /* \"#utility.yul\":5763:5781   */\n      add\n        /* \"#utility.yul\":5754:5760   */\n      dup5\n        /* \"#utility.yul\":5710:5782   */\n      tag_79\n      jump\t// in\n    tag_127:\n        /* \"#utility.yul\":5457:5789   */\n      swap4\n      swap3\n      pop\n      pop\n      pop\n      jump\t// out\n\n    auxdata: 0xa264697066735822122066b7d9a36816b892dcc54fc99c8e17980b1813dfa3163efde6725dba0ccae41464736f6c634300081a0033\n}\n",
				"bytecode": {
					"linkReferences": {},
					"object": "6080604052348015600e575f80fd5b50335f806101000a81548173ffffffffffffffffffffffffffffffffffffffff021916908373ffffffffffffffffffffffffffffffffffffffff16021790555060015f60146101000a81548160ff02191690836001811115607057606f6079565b5b021790555060a6565b7f4e487b71000000000000000000000000000000000000000000000000000000005f52602160045260245ffd5b6106d0806100b35f395ff3fe60806040526004361061003e575f3560e01c8063030da3ee1461004257806305a8da72146100585780638da5cb5b14610062578063a3dd26191461008c575b5f80fd5b34801561004d575f80fd5b506100566100b6565b005b61006061014b565b005b34801561006d575f80fd5b50610076610317565b604051610083919061042d565b60405180910390f35b348015610097575f80fd5b506100a061033a565b6040516100ad91906104b6565b60405180910390f35b5f60018111156100c9576100c86104d6565b5b5f60149054906101000a900460ff1660018111156100ea576100e96104d6565b5b0361011e5760015f60146101000a81548160ff02191690836001811115610114576101136104d6565b5b0217905550610149565b60015f60146101000a81548160ff02191690836001811115610143576101426104d6565b5b02179055505b565b60018081111561015e5761015d6104d6565b5b5f60149054906101000a900460ff16600181111561017f5761017e6104d6565b5b146101bf576040517f08c379a00000000000000000000000000000000000000000000000000000000081526004016101b69061054d565b60405180910390fd5b671bc16d674ec800008034101561020b576040517f08c379a0000000000000000000000000000000000000000000000000000000008152600401610202906105b5565b60405180910390fd5b605a34111561024f576040517f08c379a00000000000000000000000000000000000000000000000000000000081526004016102469061061d565b60405180910390fd5b5f8060146101000a81548160ff02191690836001811115610273576102726104d6565b5b02179055505f8054906101000a900473ffffffffffffffffffffffffffffffffffffffff1673ffffffffffffffffffffffffffffffffffffffff166108fc3490811502906040515f60405180830381858888f193505050501580156102da573d5f803e3d5ffd5b507f3846965588cd0ff927b37b72ddb4d43e64732f3cf60c27e7963a78ac291da2b9333460405161030c929190610673565b60405180910390a150565b5f8054906101000a900473ffffffffffffffffffffffffffffffffffffffff1681565b60605f600181111561034f5761034e6104d6565b5b5f60149054906101000a900460ff1660018111156103705761036f6104d6565b5b036103b2576040518060400160405280600481526020017f46756c6c0000000000000000000000000000000000000000000000000000000081525090506103eb565b6040518060400160405280600581526020017f456d70747900000000000000000000000000000000000000000000000000000081525090505b90565b5f73ffffffffffffffffffffffffffffffffffffffff82169050919050565b5f610417826103ee565b9050919050565b6104278161040d565b82525050565b5f6020820190506104405f83018461041e565b92915050565b5f81519050919050565b5f82825260208201905092915050565b8281835e5f83830152505050565b5f601f19601f8301169050919050565b5f61048882610446565b6104928185610450565b93506104a2818560208601610460565b6104ab8161046e565b840191505092915050565b5f6020820190508181035f8301526104ce818461047e565b905092915050565b7f4e487b71000000000000000000000000000000000000000000000000000000005f52602160045260245ffd5b7f43757272656e746c7920656d70747920796f752063616e20626f6f6b206e6f775f82015250565b5f610537602083610450565b915061054282610503565b602082019050919050565b5f6020820190508181035f8301526105648161052b565b9050919050565b7f4e6f7420656e6f7567682065746865722070726f7669646564000000000000005f82015250565b5f61059f601983610450565b91506105aa8261056b565b602082019050919050565b5f6020820190508181035f8301526105cc81610593565b9050919050565b7f416d6d6f756e742073686f756c64206265206c657373207468616e20393000005f82015250565b5f610607601e83610450565b9150610612826105d3565b602082019050919050565b5f6020820190508181035f830152610634816105fb565b9050919050565b5f610645826103ee565b9050919050565b6106558161063b565b82525050565b5f819050919050565b61066d8161065b565b82525050565b5f6040820190506106865f83018561064c565b6106936020830184610664565b939250505056fea264697066735822122066b7d9a36816b892dcc54fc99c8e17980b1813dfa3163efde6725dba0ccae41464736f6c634300081a0033",
					"opcodes": "PUSH1 0x80 PUSH1 0x40 MSTORE CALLVALUE DUP1 ISZERO PUSH1 0xE JUMPI PUSH0 DUP1 REVERT JUMPDEST POP CALLER PUSH0 DUP1 PUSH2 0x100 EXP DUP2 SLOAD DUP2 PUSH20 0xFFFFFFFFFFFFFFFFFFFFFFFFFFFFFFFFFFFFFFFF MUL NOT AND SWAP1 DUP4 PUSH20 0xFFFFFFFFFFFFFFFFFFFFFFFFFFFFFFFFFFFFFFFF AND MUL OR SWAP1 SSTORE POP PUSH1 0x1 PUSH0 PUSH1 0x14 PUSH2 0x100 EXP DUP2 SLOAD DUP2 PUSH1 0xFF MUL NOT AND SWAP1 DUP4 PUSH1 0x1 DUP2 GT ISZERO PUSH1 0x70 JUMPI PUSH1 0x6F PUSH1 0x79 JUMP JUMPDEST JUMPDEST MUL OR SWAP1 SSTORE POP PUSH1 0xA6 JUMP JUMPDEST PUSH32 0x4E487B7100000000000000000000000000000000000000000000000000000000 PUSH0 MSTORE PUSH1 0x21 PUSH1 0x4 MSTORE PUSH1 0x24 PUSH0 REVERT JUMPDEST PUSH2 0x6D0 DUP1 PUSH2 0xB3 PUSH0 CODECOPY PUSH0 RETURN INVALID PUSH1 0x80 PUSH1 0x40 MSTORE PUSH1 0x4 CALLDATASIZE LT PUSH2 0x3E JUMPI PUSH0 CALLDATALOAD PUSH1 0xE0 SHR DUP1 PUSH4 0x30DA3EE EQ PUSH2 0x42 JUMPI DUP1 PUSH4 0x5A8DA72 EQ PUSH2 0x58 JUMPI DUP1 PUSH4 0x8DA5CB5B EQ PUSH2 0x62 JUMPI DUP1 PUSH4 0xA3DD2619 EQ PUSH2 0x8C JUMPI JUMPDEST PUSH0 DUP1 REVERT JUMPDEST CALLVALUE DUP1 ISZERO PUSH2 0x4D JUMPI PUSH0 DUP1 REVERT JUMPDEST POP PUSH2 0x56 PUSH2 0xB6 JUMP JUMPDEST STOP JUMPDEST PUSH2 0x60 PUSH2 0x14B JUMP JUMPDEST STOP JUMPDEST CALLVALUE DUP1 ISZERO PUSH2 0x6D JUMPI PUSH0 DUP1 REVERT JUMPDEST POP PUSH2 0x76 PUSH2 0x317 JUMP JUMPDEST PUSH1 0x40 MLOAD PUSH2 0x83 SWAP2 SWAP1 PUSH2 0x42D JUMP JUMPDEST PUSH1 0x40 MLOAD DUP1 SWAP2 SUB SWAP1 RETURN JUMPDEST CALLVALUE DUP1 ISZERO PUSH2 0x97 JUMPI PUSH0 DUP1 REVERT JUMPDEST POP PUSH2 0xA0 PUSH2 0x33A JUMP JUMPDEST PUSH1 0x40 MLOAD PUSH2 0xAD SWAP2 SWAP1 PUSH2 0x4B6 JUMP JUMPDEST PUSH1 0x40 MLOAD DUP1 SWAP2 SUB SWAP1 RETURN JUMPDEST PUSH0 PUSH1 0x1 DUP2 GT ISZERO PUSH2 0xC9 JUMPI PUSH2 0xC8 PUSH2 0x4D6 JUMP JUMPDEST JUMPDEST PUSH0 PUSH1 0x14 SWAP1 SLOAD SWAP1 PUSH2 0x100 EXP SWAP1 DIV PUSH1 0xFF AND PUSH1 0x1 DUP2 GT ISZERO PUSH2 0xEA JUMPI PUSH2 0xE9 PUSH2 0x4D6 JUMP JUMPDEST JUMPDEST SUB PUSH2 0x11E JUMPI PUSH1 0x1 PUSH0 PUSH1 0x14 PUSH2 0x100 EXP DUP2 SLOAD DUP2 PUSH1 0xFF MUL NOT AND SWAP1 DUP4 PUSH1 0x1 DUP2 GT ISZERO PUSH2 0x114 JUMPI PUSH2 0x113 PUSH2 0x4D6 JUMP JUMPDEST JUMPDEST MUL OR SWAP1 SSTORE POP PUSH2 0x149 JUMP JUMPDEST PUSH1 0x1 PUSH0 PUSH1 0x14 PUSH2 0x100 EXP DUP2 SLOAD DUP2 PUSH1 0xFF MUL NOT AND SWAP1 DUP4 PUSH1 0x1 DUP2 GT ISZERO PUSH2 0x143 JUMPI PUSH2 0x142 PUSH2 0x4D6 JUMP JUMPDEST JUMPDEST MUL OR SWAP1 SSTORE POP JUMPDEST JUMP JUMPDEST PUSH1 0x1 DUP1 DUP2 GT ISZERO PUSH2 0x15E JUMPI PUSH2 0x15D PUSH2 0x4D6 JUMP JUMPDEST JUMPDEST PUSH0 PUSH1 0x14 SWAP1 SLOAD SWAP1 PUSH2 0x100 EXP SWAP1 DIV PUSH1 0xFF AND PUSH1 0x1 DUP2 GT ISZERO PUSH2 0x17F JUMPI PUSH2 0x17E PUSH2 0x4D6 JUMP JUMPDEST JUMPDEST EQ PUSH2 0x1BF JUMPI PUSH1 0x40 MLOAD PUSH32 0x8C379A000000000000000000000000000000000000000000000000000000000 DUP2 MSTORE PUSH1 0x4 ADD PUSH2 0x1B6 SWAP1 PUSH2 0x54D JUMP JUMPDEST PUSH1 0x40 MLOAD DUP1 SWAP2 SUB SWAP1 REVERT JUMPDEST PUSH8 0x1BC16D674EC80000 DUP1 CALLVALUE LT ISZERO PUSH2 0x20B JUMPI PUSH1 0x40 MLOAD PUSH32 0x8C379A000000000000000000000000000000000000000000000000000000000 DUP2 MSTORE PUSH1 0x4 ADD PUSH2 0x202 SWAP1 PUSH2 0x5B5 JUMP JUMPDEST PUSH1 0x40 MLOAD DUP1 SWAP2 SUB SWAP1 REVERT JUMPDEST PUSH1 0x5A CALLVALUE GT ISZERO PUSH2 0x24F JUMPI PUSH1 0x40 MLOAD PUSH32 0x8C379A000000000000000000000000000000000000000000000000000000000 DUP2 MSTORE PUSH1 0x4 ADD PUSH2 0x246 SWAP1 PUSH2 0x61D JUMP JUMPDEST PUSH1 0x40 MLOAD DUP1 SWAP2 SUB SWAP1 REVERT JUMPDEST PUSH0 DUP1 PUSH1 0x14 PUSH2 0x100 EXP DUP2 SLOAD DUP2 PUSH1 0xFF MUL NOT AND SWAP1 DUP4 PUSH1 0x1 DUP2 GT ISZERO PUSH2 0x273 JUMPI PUSH2 0x272 PUSH2 0x4D6 JUMP JUMPDEST JUMPDEST MUL OR SWAP1 SSTORE POP PUSH0 DUP1 SLOAD SWAP1 PUSH2 0x100 EXP SWAP1 DIV PUSH20 0xFFFFFFFFFFFFFFFFFFFFFFFFFFFFFFFFFFFFFFFF AND PUSH20 0xFFFFFFFFFFFFFFFFFFFFFFFFFFFFFFFFFFFFFFFF AND PUSH2 0x8FC CALLVALUE SWAP1 DUP2 ISZERO MUL SWAP1 PUSH1 0x40 MLOAD PUSH0 PUSH1 0x40 MLOAD DUP1 DUP4 SUB DUP2 DUP6 DUP9 DUP9 CALL SWAP4 POP POP POP POP ISZERO DUP1 ISZERO PUSH2 0x2DA JUMPI RETURNDATASIZE PUSH0 DUP1 RETURNDATACOPY RETURNDATASIZE PUSH0 REVERT JUMPDEST POP PUSH32 0x3846965588CD0FF927B37B72DDB4D43E64732F3CF60C27E7963A78AC291DA2B9 CALLER CALLVALUE PUSH1 0x40 MLOAD PUSH2 0x30C SWAP3 SWAP2 SWAP1 PUSH2 0x673 JUMP JUMPDEST PUSH1 0x40 MLOAD DUP1 SWAP2 SUB SWAP1 LOG1 POP JUMP JUMPDEST PUSH0 DUP1 SLOAD SWAP1 PUSH2 0x100 EXP SWAP1 DIV PUSH20 0xFFFFFFFFFFFFFFFFFFFFFFFFFFFFFFFFFFFFFFFF AND DUP2 JUMP JUMPDEST PUSH1 0x60 PUSH0 PUSH1 0x1 DUP2 GT ISZERO PUSH2 0x34F JUMPI PUSH2 0x34E PUSH2 0x4D6 JUMP JUMPDEST JUMPDEST PUSH0 PUSH1 0x14 SWAP1 SLOAD SWAP1 PUSH2 0x100 EXP SWAP1 DIV PUSH1 0xFF AND PUSH1 0x1 DUP2 GT ISZERO PUSH2 0x370 JUMPI PUSH2 0x36F PUSH2 0x4D6 JUMP JUMPDEST JUMPDEST SUB PUSH2 0x3B2 JUMPI PUSH1 0x40 MLOAD DUP1 PUSH1 0x40 ADD PUSH1 0x40 MSTORE DUP1 PUSH1 0x4 DUP2 MSTORE PUSH1 0x20 ADD PUSH32 0x46756C6C00000000000000000000000000000000000000000000000000000000 DUP2 MSTORE POP SWAP1 POP PUSH2 0x3EB JUMP JUMPDEST PUSH1 0x40 MLOAD DUP1 PUSH1 0x40 ADD PUSH1 0x40 MSTORE DUP1 PUSH1 0x5 DUP2 MSTORE PUSH1 0x20 ADD PUSH32 0x456D707479000000000000000000000000000000000000000000000000000000 DUP2 MSTORE POP SWAP1 POP JUMPDEST SWAP1 JUMP JUMPDEST PUSH0 PUSH20 0xFFFFFFFFFFFFFFFFFFFFFFFFFFFFFFFFFFFFFFFF DUP3 AND SWAP1 POP SWAP2 SWAP1 POP JUMP JUMPDEST PUSH0 PUSH2 0x417 DUP3 PUSH2 0x3EE JUMP JUMPDEST SWAP1 POP SWAP2 SWAP1 POP JUMP JUMPDEST PUSH2 0x427 DUP2 PUSH2 0x40D JUMP JUMPDEST DUP3 MSTORE POP POP JUMP JUMPDEST PUSH0 PUSH1 0x20 DUP3 ADD SWAP1 POP PUSH2 0x440 PUSH0 DUP4 ADD DUP5 PUSH2 0x41E JUMP JUMPDEST SWAP3 SWAP2 POP POP JUMP JUMPDEST PUSH0 DUP2 MLOAD SWAP1 POP SWAP2 SWAP1 POP JUMP JUMPDEST PUSH0 DUP3 DUP3 MSTORE PUSH1 0x20 DUP3 ADD SWAP1 POP SWAP3 SWAP2 POP POP JUMP JUMPDEST DUP3 DUP2 DUP4 MCOPY PUSH0 DUP4 DUP4 ADD MSTORE POP POP POP JUMP JUMPDEST PUSH0 PUSH1 0x1F NOT PUSH1 0x1F DUP4 ADD AND SWAP1 POP SWAP2 SWAP1 POP JUMP JUMPDEST PUSH0 PUSH2 0x488 DUP3 PUSH2 0x446 JUMP JUMPDEST PUSH2 0x492 DUP2 DUP6 PUSH2 0x450 JUMP JUMPDEST SWAP4 POP PUSH2 0x4A2 DUP2 DUP6 PUSH1 0x20 DUP7 ADD PUSH2 0x460 JUMP JUMPDEST PUSH2 0x4AB DUP2 PUSH2 0x46E JUMP JUMPDEST DUP5 ADD SWAP2 POP POP SWAP3 SWAP2 POP POP JUMP JUMPDEST PUSH0 PUSH1 0x20 DUP3 ADD SWAP1 POP DUP2 DUP2 SUB PUSH0 DUP4 ADD MSTORE PUSH2 0x4CE DUP2 DUP5 PUSH2 0x47E JUMP JUMPDEST SWAP1 POP SWAP3 SWAP2 POP POP JUMP JUMPDEST PUSH32 0x4E487B7100000000000000000000000000000000000000000000000000000000 PUSH0 MSTORE PUSH1 0x21 PUSH1 0x4 MSTORE PUSH1 0x24 PUSH0 REVERT JUMPDEST PUSH32 0x43757272656E746C7920656D70747920796F752063616E20626F6F6B206E6F77 PUSH0 DUP3 ADD MSTORE POP JUMP JUMPDEST PUSH0 PUSH2 0x537 PUSH1 0x20 DUP4 PUSH2 0x450 JUMP JUMPDEST SWAP2 POP PUSH2 0x542 DUP3 PUSH2 0x503 JUMP JUMPDEST PUSH1 0x20 DUP3 ADD SWAP1 POP SWAP2 SWAP1 POP JUMP JUMPDEST PUSH0 PUSH1 0x20 DUP3 ADD SWAP1 POP DUP2 DUP2 SUB PUSH0 DUP4 ADD MSTORE PUSH2 0x564 DUP2 PUSH2 0x52B JUMP JUMPDEST SWAP1 POP SWAP2 SWAP1 POP JUMP JUMPDEST PUSH32 0x4E6F7420656E6F7567682065746865722070726F766964656400000000000000 PUSH0 DUP3 ADD MSTORE POP JUMP JUMPDEST PUSH0 PUSH2 0x59F PUSH1 0x19 DUP4 PUSH2 0x450 JUMP JUMPDEST SWAP2 POP PUSH2 0x5AA DUP3 PUSH2 0x56B JUMP JUMPDEST PUSH1 0x20 DUP3 ADD SWAP1 POP SWAP2 SWAP1 POP JUMP JUMPDEST PUSH0 PUSH1 0x20 DUP3 ADD SWAP1 POP DUP2 DUP2 SUB PUSH0 DUP4 ADD MSTORE PUSH2 0x5CC DUP2 PUSH2 0x593 JUMP JUMPDEST SWAP1 POP SWAP2 SWAP1 POP JUMP JUMPDEST PUSH32 0x416D6D6F756E742073686F756C64206265206C657373207468616E2039300000 PUSH0 DUP3 ADD MSTORE POP JUMP JUMPDEST PUSH0 PUSH2 0x607 PUSH1 0x1E DUP4 PUSH2 0x450 JUMP JUMPDEST SWAP2 POP PUSH2 0x612 DUP3 PUSH2 0x5D3 JUMP JUMPDEST PUSH1 0x20 DUP3 ADD SWAP1 POP SWAP2 SWAP1 POP JUMP JUMPDEST PUSH0 PUSH1 0x20 DUP3 ADD SWAP1 POP DUP2 DUP2 SUB PUSH0 DUP4 ADD MSTORE PUSH2 0x634 DUP2 PUSH2 0x5FB JUMP JUMPDEST SWAP1 POP SWAP2 SWAP1 POP JUMP JUMPDEST PUSH0 PUSH2 0x645 DUP3 PUSH2 0x3EE JUMP JUMPDEST SWAP1 POP SWAP2 SWAP1 POP JUMP JUMPDEST PUSH2 0x655 DUP2 PUSH2 0x63B JUMP JUMPDEST DUP3 MSTORE POP POP JUMP JUMPDEST PUSH0 DUP2 SWAP1 POP SWAP2 SWAP1 POP JUMP JUMPDEST PUSH2 0x66D DUP2 PUSH2 0x65B JUMP JUMPDEST DUP3 MSTORE POP POP JUMP JUMPDEST PUSH0 PUSH1 0x40 DUP3 ADD SWAP1 POP PUSH2 0x686 PUSH0 DUP4 ADD DUP6 PUSH2 0x64C JUMP JUMPDEST PUSH2 0x693 PUSH1 0x20 DUP4 ADD DUP5 PUSH2 0x664 JUMP JUMPDEST SWAP4 SWAP3 POP POP POP JUMP INVALID LOG2 PUSH5 0x6970667358 0x22 SLT KECCAK256 PUSH7 0xB7D9A36816B892 0xDC 0xC5 0x4F 0xC9 SWAP13 DUP15 OR SWAP9 SIGNEXTEND XOR SGT 0xDF LOG3 AND RETURNDATACOPY REVERT 0xE6 PUSH19 0x5DBA0CCAE41464736F6C634300081A00330000 "
				},
				"gasEstimates": {
					"creation": {
						"codeDepositCost": "348800",
						"executionCost": "48997",
						"totalCost": "397797"
					},
					"external": {
						"book()": "infinite",
						"getCurrentStatus()": "infinite",
						"owner()": "2527",
						"requestForChangeStatus()": "26727"
					}
				},
				"methodIdentifiers": {
					"book()": "05a8da72",
					"getCurrentStatus()": "a3dd2619",
					"owner()": "8da5cb5b",
					"requestForChangeStatus()": "030da3ee"
				}
			},
			"storageLayout": {
				"storage": [
					{
						"astId": 6,
						"contract": "contracts/HotelRoom.sol:HotelRoom",
						"label": "owner",
						"offset": 0,
						"slot": "0",
						"type": "t_address_payable"
					},
					{
						"astId": 9,
						"contract": "contracts/HotelRoom.sol:HotelRoom",
						"label": "currentStatus",
						"offset": 20,
						"slot": "0",
						"type": "t_enum(RoomStatus)4"
					}
				],
				"types": {
					"t_address_payable": {
						"encoding": "inplace",
						"label": "address payable",
						"numberOfBytes": "20"
					},
					"t_enum(RoomStatus)4": {
						"encoding": "inplace",
						"label": "enum HotelRoom.RoomStatus",
						"numberOfBytes": "1"
					}
				}
			},
			"userdoc": {
				"kind": "user",
				"methods": {},
				"version": 1
			}
		}
	}
}